HR1V030000003769900A720230915LADAK                    DR A 002699642 99999999  
HR2                              106-245 DIXON RD                              
HR3ETOBICOKE       ON M9P2M4                                                   
HR4E3320151179103769900   4LPMZ                   ON9632372265  HDHCPOFF 0000  
HR5E332015117912023072901A888A 003795003795                                    
HR4E3320151190103769900   4LPNA                   ON3141305072  BLHCPOFF 0000  
HR5E332015119012023072901A888A 003795003795                                    
HR4E3320151191103769900   4LPNB                   ON3976954366  WLHCPOFF 0000  
HR5E332015119112023072901A888A 003795003795                                    
HR4E3320151192103769900   4LPNC                   ON3385430750    HCPOFF 0000  
HR5E332015119212023072901A888A 003795003795                                    
HR4E3320151193103769900   4LPND                   ON7037996498  BDHCPOFF 0000  
HR5E332015119312023072901A888A 003795003795                                    
HR4E3320151194103769900   4LPNE                   ON5894211241  HFHCPOFF 0000  
HR5E332015119412023072901A888A 003795003795                                    
HR4E3320151195103769900   4LPNF                   ON4495957963  AXHCPOFF 0000  
HR5E332015119512023072901A888A 003795003795                                    
HR4E3320151196103769900   4LPNG                   ON8515567090  LRHCPOFF 0000  
HR5E332015119612023072901A888A 003795003795                                    
HR4E3320151197103769900   4LPNH                   ON5009388140  HDHCPOFF 0000  
HR5E332015119712023072901A888A 003795003795                                    
HR4E3320151198103769900   4LPNI                   ON3329616241  KEHCPOFF 0000  
HR5E332015119812023072901A888A 003795003795                                    
HR4E3320151199103769900   4LPNJ                   ON8623961664  XGHCPOFF 0000  
HR5E332015119912023072901A888A 003795003795                                    
HR4E3320151200103769900   4LPNK                   ON1474536099  GMHCPOFF 0000  
HR5E332015120012023072901A888A 003795003795                                    
HR4E3320151201103769900   4LPNL                   ON3642804235  WNHCPOFF 0000  
HR5E332015120112023072901A888A 003795003795                                    
HR4E3320151202103769900   4LPNM                   ON1262152661  TCHCPOFF 0000  
HR5E332015120212023072901A888A 003795003795                                    
HR5E332015120212023072901G010A 000264000264                                    
HR4E3320151203103769900   4LPNN                   ON8595542542  RDHCPOFF 0000  
HR5E332015120312023072901A888A 003795003795                                    
HR4E3320151204103769900   4LPNO                   ON8061881788  GDHCPOFF 0000  
HR5E332015120412023072901A888A 003795003795                                    
HR5E332015120412023072901G010A 000264000264                                    
HR4E3320151205103769900   4LPNP                   ON6897917651  WBHCPOFF 0000  
HR5E332015120512023072901A888A 003795003795                                    
HR4E3320151208103769900   4LPNS                   ON4744591787  FRHCPOFF 0000  
HR5E332015120812023072901A888A 003795003795                                    
HR4E3320151211103769900   4LPNT                   ON6016260785  KWHCPOFF 0000  
HR5E332015121112023072901A888A 003795003795                                    
HR4E3320151212103769900   4LPNU                   ON1446108886  DAHCPOFF 0000  
HR5E332015121212023072901A888A 003795003795                                    
HR4E3320151213103769900   4LPNV                   ON3658347467  FMHCPOFF 0000  
HR5E332015121312023072901A888A 003795003795                                    
HR4E3320151214103769900   4LPNW                   ON5905823091  HCHCPOFF 0000  
HR5E332015121412023072901A888A 003795003795                                    
HR4E3320151215103769900   4LPNX                   ON3299093769  GJHCPOFF 0000  
HR5E332015121512023072901G372A 000389000389                                    
HR5E332015121512023072901K028A 007010007010                                    
HR4E3320151180103769900   4LPN0                   ON2362737831  XNHCPOFF 0000  
HR5E332015118012023072901A888A 003795003795                                    
HR4E3320151181103769900   4LPN1                   ON3228626028  TXHCPOFF 0000  
HR5E332015118112023072901A888A 003795003795                                    
HR4E3320151182103769900   4LPN2                   ON1323958197  RDHCPOFF 0000  
HR5E332015118212023072901A888A 003795003795                                    
HR4E3320151183103769900   4LPN3                   ON5279326051  VWHCPOFF 0000  
HR5E332015118312023072901A888A 003795003795                                    
HR4E3320151184103769900   4LPN4                   ON3433962697  JKHCPOFF 0000  
HR5E332015118412023072901A888A 003795003795                                    
HR4E3320151185103769900   4LPN5                   ON8110437939  NPHCPOFF 0000  
HR5E332015118512023072901A888A 003795003795                                    
HR4E3320151186103769900   4LPN6                   ON5643924953  XNHCPOFF 0000  
HR5E332015118612023072901A888A 003795003795                                    
HR4E3320151187103769900   4LPN7                   ON1839515473  PBHCPOFF 0000  
HR5E332015118712023072901A888A 003795003795                                    
HR5E332015118712023072901G010A 000264000264                                    
HR4E3320151188103769900   4LPN8                   ON9117657669  EKHCPOFF 0000  
HR5E332015118812023072901A888A 003795003795                                    
HR4E3320151189103769900   4LPN9                   ON2313956399  GLHCPOFF 0000  
HR5E332015118912023072901A888A 003795003795                                    
HR4E3320161077103769900   4LPSK                   ON6039617615  KXHCPOFF 0000  
HR5E332016107712023072901A888A 003795003795                                    
HR4E3320161078103769900   4LPSL                   ON5844993930  RRHCPOFF 0000  
HR5E332016107812023072901A888A 003795003795                                    
HR4E3320161079103769900   4LPSM                   ON8751556864  VYHCPOFF 0000  
HR5E332016107912023072901A888A 003795003795                                    
HR4E3320161080103769900   4LPSN                   ON6173680817  AYHCPOFF 0000  
HR5E332016108012023072901A888A 003795003795                                    
HR4E3320161081103769900   4LPSO                   ON6173680817  AYHCPOFF 0000  
HR5E332016108112023072901G420A 001315001315                                    
HR4E3320161082103769900   4LPSP                   ON5918416883  CWHCPOFF 0000  
HR5E332016108212023072901A888A 003795003795                                    
HR4E3320161083103769900   4LPSQ                   ON1734229808  KHHCPOFF 0000  
HR5E332016108312023072901A888A 003795003795                                    
HR4E3320161084103769900   4LPSR                   ON9190595505  HDHCPOFF 0000  
HR5E332016108412023072901A888A 003795003795                                    
HR4E3320161085103769900   4LPSS                   ON8711023609  DLHCPOFF 0000  
HR5E332016108512023072901A888A 003795003795                                    
HR4E3320161060103769900   4LPUO                   ON4515143917  EJHCPOFF 0000  
HR5E332016106012023072901A888A 003795003795                                    
HR4E3320161061103769900   4LPUP                   ON2380030615  NVHCPOFF 0000  
HR5E332016106112023072901A888A 003795003795                                    
HR4E3320161062103769900   4LPUQ                   ON3676739448  TYHCPOFF 0000  
HR5E332016106212023072901A888A 003795003795                                    
HR4E3320161063103769900   4LPUR                   ON8761999377  LHHCPOFF 0000  
HR5E332016106312023072901A888A 003795003795                                    
HR4E3320161064103769900   4LPUS                   ON3395983368  FKHCPOFF 0000  
HR5E332016106412023072901A888A 003795003795                                    
HR4E3320161065103769900   4LPUT                   ON3498217813  DFHCPOFF 0000  
HR5E332016106512023072901A888A 003795003795                                    
HR4E3320161068103769900   4LPYR                   ON6782277096  ERHCPOFF 0000  
HR5E332016106812023072901A888A 003795003795                                    
HR4E3320161069103769900   4LPYS                   ON2340245485  TAHCPOFF 0000  
HR5E332016106912023072901A888A 003795003795                                    
HR4E3320161070103769900   4LPYT                   ON6161307944  FVHCPOFF 0000  
HR5E332016107012023072901A888A 003795003795                                    
HR4E3320161071103769900   4LPYU                   ON3807945534    HCPOFF 0000  
HR5E332016107112023072901A888A 003795003795                                    
HR5E332016107112023072901G010A 000264000264                                    
HR4E3320161072103769900   4LPYV                   ON4267733030  JDHCPOFF 0000  
HR5E332016107212023072901A888A 003795003795                                    
HR4E3320161073103769900   4LPYW                   ON4265654063  EYHCPOFF 0000  
HR5E332016107312023072901A888A 003795003795                                    
HR4E3320161074103769900   4LPYX                   ON9044261544  PTHCPOFF 0000  
HR5E332016107412023072901A888A 003795003795                                    
HR4E3080881967103769900   4MCDA                   ON8645469381  RAHCPOFF 0000  
HR5E308088196712023080501A888A 003795003795                                    
HR4E3080881968103769900   4MCDB                   ON1996747166  TVHCPOFF 0000  
HR5E308088196812023080501A888A 003795003795                                    
HR4E3080881969103769900   4MCDC                   ON2422545521  GCHCPOFF 0000  
HR5E308088196912023080501A888A 003795003795                                    
HR4E3080881970103769900   4MCDD                   ON3769902747  CFHCPOFF 0000  
HR5E308088197012023080501A888A 003795003795                                    
HR5E308088197012023080501G840A 000540000540                                    
HR4E3080881971103769900   4MCDE                   ON6748359251  GVHCPOFF 0000  
HR5E308088197112023080501A888A 003795003795                                    
HR4E3080881972103769900   4MCDF                   ON8933468871  KPHCPOFF 0000  
HR5E308088197212023080501A888A 003795003795                                    
HR4E3080881973103769900   4MCDG                   ON3891924668  HRHCPOFF 0000  
HR5E308088197312023080501A888A 003795003795                                    
HR4E3080881974103769900   4MCDH                   ON7016129665  GVHCPOFF 0000  
HR5E308088197412023080501A888A 003795003795                                    
HR4E3080881976103769900   4MCDJ                   ON2421497039  GMHCPOFF 0000  
HR5E308088197612023080501K028A 007010007010                                    
HR4E3080881977103769900   4MCDK                   ON2421497039  GMHCPOFF 0000  
HR5E308088197712023080501G372A 000389000389                                    
HR4E3080881978103769900   4MCDL                   ON7681248667  ALHCPOFF 0000  
HR5E308088197812023080501A888A 003795003795                                    
HR4E3080881979103769900   4MCDM                   ON7621692537  LCHCPOFF 0000  
HR5E308088197912023080501A888A 003795003795                                    
HR4E3080881981103769900   4MCDO                   ON9201076503  EMHCPOFF 0000  
HR5E308088198112023080501A888A 003795003795                                    
HR4E3080881982103769900   4MCDP                   ON3487332334  WHHCPOFF 0000  
HR5E308088198212023080501A888A 003795003795                                    
HR4E3080881983103769900   4MCDQ                   ON6125577301  CVHCPOFF 0000  
HR5E308088198312023080501A888A 003795003795                                    
HR4E3080881984103769900   4MCDR                   ON4052726629  JKHCPOFF 0000  
HR5E308088198412023080501A888A 003795003795                                    
HR4E3080881985103769900   4MCDS                   ON9599057412  EXHCPOFF 0000  
HR5E308088198512023080501A888A 003795003795                                    
HR4E3080881986103769900   4MCDT                   ON5399806503  XPHCPOFF 0000  
HR5E308088198612023080501A888A 003795003795                                    
HR4E3080881987103769900   4MCDU                   ON5959122143  KYHCPOFF 0000  
HR5E308088198712023080501A888A 003795003795                                    
HR4E3080881988103769900   4MCDV                   ON9349383258  ALHCPOFF 0000  
HR5E308088198812023080501A888A 003795003795                                    
HR4E3080881989103769900   4MCDW                   ON7185143281  AFHCPOFF 0000  
HR5E308088198912023080501A888A 003795003795                                    
HR4E3080881990103769900   4MCDX                   ON1500637465  FAHCPOFF 0000  
HR5E308088199012023080501A888A 003795003795                                    
HR4E3080881991103769900   4MCDY                   ON1199617265  FHHCPOFF 0000  
HR5E308088199112023080501A888A 003795003795                                    
HR4E3080881992103769900   4MCDZ                   ON5699272018  PMHCPOFF 0000  
HR5E308088199212023080501A888A 003795003795                                    
HR4E3080882005103769900   4MCEA                   ON4036599373  WHHCPOFF 0000  
HR5E308088200512023080501A888A 003795003795                                    
HR4E3080881993103769900   4MCE0                   ON2625517103  WEHCPOFF 0000  
HR5E308088199312023080501A888A 003795003795                                    
HR4E3080881994103769900   4MCE1                   ON9765540688  ERHCPOFF 0000  
HR5E308088199412023080501A888A 003795003795                                    
HR4E3080881995103769900   4MCE2                   ON2242083448  PDHCPOFF 0000  
HR5E308088199512023080501A888A 003795003795                                    
HR4E3080881996103769900   4MCE3                   ON9349388083  NGHCPOFF 0000  
HR5E308088199612023080501A888A 003795003795                                    
HR4E3080881999103769900   4MCE4                   ON6527737172  BNHCPOFF 0000  
HR5E308088199912023080501A888A 003795003795                                    
HR4E3080882000103769900   4MCE5                   ON9222605694  KVHCPOFF 0000  
HR5E308088200012023080501A888A 003795003795                                    
HR4E3080882001103769900   4MCE6                   ON7017786471  YBHCPOFF 0000  
HR5E308088200112023080501A888A 003795003795                                    
HR4E3080882002103769900   4MCE7                   ON5240516327  WAHCPOFF 0000  
HR5E308088200212023080501A888A 003795003795                                    
HR4E3080882003103769900   4MCE8                   ON5316595759  RFHCPOFF 0000  
HR5E308088200312023080501A888A 003795003795                                    
HR4E3080882004103769900   4MCE9                   ON1734229808  KHHCPOFF 0000  
HR5E308088200412023080501A888A 003795003795                                    
HR5E308088200412023080501Z081A 003000003000                                    
HR4E3200856810103769900   4MCIX                   ON5757603419  NVHCPOFF 0000  
HR5E320085681012023080501A888A 003795003795                                    
HR4E3200856811103769900   4MCIY                   ON9431037622  EHHCPOFF 0000  
HR5E320085681112023080501A888A 003795003795                                    
HR4E3200856812103769900   4MCIZ                   ON4407479296  KLHCPOFF 0000  
HR5E320085681212023080501A888A 003795003795                                    
HR4E3200856801103769900   4MCI0                   ON5115001967  NTHCPOFF 0000  
HR5E320085680112023080501A888A 003795003795                                    
HR4E3200856802103769900   4MCI1                   ON9503690597  CPHCPOFF 0000  
HR5E320085680212023080501A888A 003795003795                                    
HR4E3200856803103769900   4MCI2                   ON2024649101  VGHCPOFF 0000  
HR5E320085680312023080501A888A 003795003795                                    
HR4E3200856804103769900   4MCI3                   ON5289998618  HDHCPOFF 0000  
HR5E320085680412023080501A888A 003795003795                                    
HR4E3200856805103769900   4MCI4                   ON7753974208  CBHCPOFF 0000  
HR5E320085680512023080501A888A 003795003795                                    
HR5E320085680512023080501Z081A 003000003000                                    
HR4E3200856806103769900   4MCI5                   ON7838454762  VYHCPOFF 0000  
HR5E320085680612023080501A888A 003795003795                                    
HR4E3200856807103769900   4MCI6                   ON5336336804  CDHCPOFF 0000  
HR5E320085680712023080501A888A 003795003795                                    
HR4E3200856813103769900   4MCJ0                   ON5866397077  PAHCPOFF 0000  
HR5E320085681312023080501A888A 003795003795                                    
HR4E3200856814103769900   4MCJ1                   ON2005815358  HLHCPOFF 0000  
HR5E320085681412023080501A888A 003795003795                                    
HR4E3200856815103769900   4MCJ2                   ON2911507966  DKHCPOFF 0000  
HR5E320085681512023080501A888A 003795003795                                    
HR4E3200856816103769900   4MCJ3                   ON5067770528  HEHCPOFF 0000  
HR5E320085681612023080501A888A 003795003795                                    
HR4E3200856817103769900   4MCJ4                   ON9891943699  GMHCPOFF 0000  
HR5E320085681712023080501A888A 003795003795                                    
HR4E3200856818103769900   4MCJ5                   ON9189597256  ADHCPOFF 0000  
HR5E320085681812023080501A888A 003795003795                                    
HR4E3081488248103769900   4MYKZ                   ON8189089744  MLHCPOFF 0000  
HR5E308148824812023081201A888A 003795003795                                    
HR4E3081488259103769900   4MYLA                   ON7822963638  XYHCPOFF 0000  
HR5E308148825912023081201A888A 003795003795                                    
HR4E3081488260103769900   4MYLB                   ON1469624314  AJHCPOFF 0000  
HR5E308148826012023081201A888A 003795003795                                    
HR4E3081488261103769900   4MYLC                   ON6309459326  NLHCPOFF 0000  
HR5E308148826112023081201A888A 003795003795                                    
HR4E3081488262103769900   4MYLD                   ON3859803789  BNHCPOFF 0000  
HR5E308148826212023081201A888A 003795003795                                    
HR4E3081488263103769900   4MYLE                   ON3525822916  KBHCPOFF 0000  
HR5E308148826312023081201A888A 003795003795                                    
HR4E3081488264103769900   4MYLF                   ON7990351798  LPHCPOFF 0000  
HR5E308148826412023081201A888A 003795003795                                    
HR4E3081488265103769900   4MYLG                   ON5514326361  HDHCPOFF 0000  
HR5E308148826512023081201P003A 008035008035                                    
HR4E3081488266103769900   4MYLH                   ON1217636321  FVHCPOFF 0000  
HR5E308148826612023081201A888A 003795003795                                    
HR4E3081488268103769900   4MYLJ                   ON1462803071  WJHCPOFF 0000  
HR5E308148826812023081201A888A 003795003795                                    
HR4E3081488269103769900   4MYLK                   ON5973541708  KNHCPOFF 0000  
HR5E308148826912023081201K030A 004055004055                                    
HR4E3081488249103769900   4MYL0                   ON4274321449  HKHCPOFF 0000  
HR5E308148824912023081201P003A 008035008035                                    
HR4E3081488250103769900   4MYL1                   ON7838454762  VYHCPOFF 0000  
HR5E308148825012023081201K030A 004055004055                                    
HR4E3081488251103769900   4MYL2                   ON7390694615  NCHCPOFF 0000  
HR5E308148825112023081201A888A 003795003795                                    
HR4E3081488252103769900   4MYL3                   ON6313178706  RDHCPOFF 0000  
HR5E308148825212023081201A888A 003795003795                                    
HR4E3081488253103769900   4MYL4                   ON3597750979  GLHCPOFF 0000  
HR5E308148825312023081201A888A 003795003795                                    
HR4E3081488254103769900   4MYL5                   ON5760642776  HPHCPOFF 0000  
HR5E308148825412023081201A888A 003795003795                                    
HR4E3081488255103769900   4MYL6                   ON7164176831  WMHCPOFF 0000  
HR5E308148825512023081201A888A 003795003795                                    
HR4E3081488256103769900   4MYL7                   ON3948545987  TLHCPOFF 0000  
HR5E308148825612023081201A888A 003795003795                                    
HR5E308148825612023081201G840A 000540000540                                    
HR4E3081488257103769900   4MYL8                   ON6533798812  AKHCPOFF 0000  
HR5E308148825712023081201A888A 003795003795                                    
HR4E3081488258103769900   4MYL9                   ON7848169582  ALHCPOFF 0000  
HR5E308148825812023081201A888A 003795003795                                    
HR4E3081497501103769900   4MYSA                   ON8196496627  DMHCPOFF 0000  
HR5E308149750112023081201A888A 003795003795                                    
HR4E3081497502103769900   4MYSB                   ON7572899453  NEHCPOFF 0000  
HR5E308149750212023081201A888A 003795003795                                    
HR4E3081497503103769900   4MYSC                   ON5493719164  MEHCPOFF 0000  
HR5E308149750312023081201A888A 003795003795                                    
HR4E3081497504103769900   4MYSD                   ON3816980506  CGHCPOFF 0000  
HR5E308149750412023081201A003A 008735008735                                    
HR4E3081497505103769900   4MYSE                   ON4698051242  HBHCPOFF 0000  
HR5E308149750512023081201A888A 003795003795                                    
HR4E3081497498103769900   4MYS7                   ON6087819303  RBHCPOFF 0000  
HR5E308149749812023081201A888A 003795003795                                    
HR4E3081497499103769900   4MYS8                   ON9431037622  EHHCPOFF 0000  
HR5E308149749912023081201A888A 003795003795                                    
HR5E308149749912023081201G372A 000389000389                                    
HR4E3081497500103769900   4MYS9                   ON7350465451  FLHCPOFF 0000  
HR5E308149750012023081201A888A 003795003795                                    
HR4E3081497480103769900   4MYX2                   ON7198341658  MKHCPOFF 0000  
HR5E308149748012023081201A888A 003795003795                                    
HR4E3081497481103769900   4MYX3                   ON6802766136  AJHCPOFF 0000  
HR5E308149748112023081201A888A 003795003795                                    
HR5E308149748112023081201G010A 000264000264                                    
HR4E3081497482103769900   4MYX4                   ON1428439572  XLHCPOFF 0000  
HR5E308149748212023081201A888A 003795003795                                    
HR4E3081497483103769900   4MYX5                   ON4256769565  WBHCPOFF 0000  
HR5E308149748312023081201A888A 003795003795                                    
HR4E3081497484103769900   4MYX6                   ON5903331782  HEHCPOFF 0000  
HR5E308149748412023081201A888A 003795003795                                    
HR4E3081497485103769900   4MYX7                   ON5884252601  XGHCPOFF 0000  
HR5E308149748512023081201A888A 003795003795                                    
HR4E3081497486103769900   4MYX8                   ON5166163682  JXHCPOFF 0000  
HR5E308149748612023081201A888A 003795003795                                    
HR4E3081497487103769900   4MYX9                   ON5390973823  DDHCPOFF 0000  
HR5E308149748712023081201A888A 003795003795                                    
HR4E3081497490103769900   4MZ0R                   ON7223161709  AGHCPOFF 0000  
HR5E308149749012023081201A888A 003795003795                                    
HR4E3081497491103769900   4MZ0S                   ON8645469381  RAHCPOFF 0000  
HR5E308149749112023081201A888A 003795003795                                    
HR4E3081497492103769900   4MZ0T                   ON1098748138  HGHCPOFF 0000  
HR5E308149749212023081201A888A 003795003795                                    
HR5E308149749212023081201Z117A 001165001165                                    
HR4E3081497493103769900   4MZ0U                   ON7114831436  FEHCPOFF 0000  
HR5E308149749312023081201A888A 003795003795                                    
HR4E3081497494103769900   4MZ0V                   ON7017786471  YBHCPOFF 0000  
HR5E308149749412023081201A888A 003795003795                                    
HR4E3081497495103769900   4MZ0W                   ON1106718693  PRHCPOFF 0000  
HR5E308149749512023081201A888A 003795003795                                    
HR4E3081601414103769900   4NA3A                   ON3141305072  BLHCPOFF 0000  
HR5E308160141412023071501A888A 003795003795                                    
HR4E3081601415103769900   4NA3B                   ON3090485610  XMHCPOFF 0000  
HR5E308160141512023070101A888A 003795003795                                    
HR4E3081601416103769900   4NA3C                   ON7061523622  DJHCPOFF 0000  
HR5E308160141612023070101A888A 003795003795                                    
HR4E3081601408103769900   4NA34                   ON6627346387  PWHCPOFF 0000  
HR5E308160140812023080501A888A 003795003795                                    
HR4E3081601409103769900   4NA35                   ON5736629576  JMHCPOFF 0000  
HR5E308160140912023072901A888A 003795003795                                    
HR4E3081601410103769900   4NA36                   ON5700695520  XYHCPOFF 0000  
HR5E308160141012023072901A888A 003795003795                                    
HR4E3081601411103769900   4NA37                   ON2709623546  NWHCPOFF 0000  
HR5E308160141112023072201A888A 003795003795                                    
HR4E3081601412103769900   4NA38                   ON6248134238  XRHCPOFF 0000  
HR5E308160141212023072201A888A 003795003795                                    
HR4E3081601413103769900   4NA39                   ON8541352251  YDHCPOFF 0000  
HR5E308160141312023071501A888A 003795003795                                    
HR4E3441831381103769900   4NSRQ                   ON9040491780  HYHCPOFF 0000  
HR5E344183138112023081201A888A 003795003795                                    
HR4E3202800268103769900   4OIAE                   ON5928190650  AYHCPOFF 0000  
HR5E320280026812023082601A888A 003795003795                                    
HR4E3202800269103769900   4OIAF                   ON7239124659  AYHCPOFF 0000  
HR5E320280026912023082601A888A 003795003795                                    
HR4E3202800270103769900   4OIAG                   ON9894610907  RCHCPOFF 0000  
HR5E320280027012023082601A888A 003795003795                                    
HR4E3202800271103769900   4OIAH                   ON7598520687  WHHCPOFF 0000  
HR5E320280027112023082601A888A 003795003795                                    
HR4E3202800272103769900   4OIAI                   ON4443177862  EWHCPOFF 0000  
HR5E320280027212023082601A888A 003795003795                                    
HR5E320280027212023082601G010A 000264000264                                    
HR4E3202800273103769900   4OIAJ                   ON5558154422  YAHCPOFF 0000  
HR5E320280027312023082601A003A 008735008735                                    
HR4E3202800274103769900   4OIAK                   ON4973138318  GRHCPOFF 0000  
HR5E320280027412023082601A888A 003795003795                                    
HR4E3202800275103769900   4OIAL                   ON5628538653  CNHCPOFF 0000  
HR5E320280027512023082601A888A 003795003795                                    
HR4E3202800276103769900   4OIAM                   ON1776026815  YMHCPOFF 0000  
HR5E320280027612023082601A888A 003795003795                                    
HR4E3202800244103769900   4OIDE                   ON7020459835  FGHCPOFF 0000  
HR5E320280024412023082601K028A 007010007010                                    
HR4E3202800245103769900   4OIDF                   ON1015791674  JTHCPOFF 0000  
HR5E320280024512023082601A888A 003795003795                                    
HR4E3202800246103769900   4OIDG                   ON1106280462  NYHCPOFF 0000  
HR5E320280024612023082601A888A 003795003795                                    
HR4E3202800247103769900   4OIDH                   ON9602682263  WJHCPOFF 0000  
HR5E320280024712023082601A888A 003795003795                                    
HR4E3202800248103769900   4OIDI                   ON5611444661  KTHCPOFF 0000  
HR5E320280024812023082601A888A 003795003795                                    
HR4E3202800249103769900   4OIDJ                   ON5881222367  BRHCPOFF 0000  
HR5E320280024912023082601A888A 003795003795                                    
HR5E320280024912023082601G010A 000264000264                                    
HR4E3202800252103769900   4OIGV                   ON6997884108  MXHCPOFF 0000  
HR5E320280025212023082601A888A 003795003795                                    
HR4E3202800253103769900   4OIGW                   ON9380639402  EMHCPOFF 0000  
HR5E320280025312023082601A888A 003795003795                                    
HR4E3202800254103769900   4OIGX                   ON3248833562  CGHCPOFF 0000  
HR5E320280025412023082601A888A 003795003795                                    
HR4E3202800255103769900   4OIGY                   ON4672721984  ABHCPOFF 0000  
HR5E320280025512023082601A888A 003795003795                                    
HR4E3202800256103769900   4OIGZ                   ON4939433746  PYHCPOFF 0000  
HR5E320280025612023082601A888A 003795003795                                    
HR4E3082892081103769900   4OI3A                   ON9767134803  FVHCPOFF 0000  
HR5E308289208112023082601A888A 003795003795                                    
HR4E3082892082103769900   4OI3B                   ON3607830431  ECHCPOFF 0000  
HR5E308289208212023082601A888A 003795003795                                    
HR4E3082892083103769900   4OI3C                   ON1369181415  WWHCPOFF 0000  
HR5E308289208312023082601A888A 003795003795                                    
HR4E3082892084103769900   4OI3D                   ON9475823457  ERHCPOFF 0000  
HR5E308289208412023082601A888A 003795003795                                    
HR4E3082892085103769900   4OI3F                   ON8307008451  FVHCPOFF 0000  
HR5E308289208512023082601A888A 003795003795                                    
HR4E3082892086103769900   4OI3G                   ON9445911218  KPHCPOFF 0000  
HR5E308289208612023082601A888A 003795003795                                    
HR4E3082892087103769900   4OI3H                   ON6070893554  LWHCPOFF 0000  
HR5E308289208712023082601A888A 003795003795                                    
HR4E3082892075103769900   4OI34                   ON2765335647  PKHCPOFF 0000  
HR5E308289207512023082601A888A 003795003795                                    
HR4E3082892076103769900   4OI35                   ON5639237030  KHHCPOFF 0000  
HR5E308289207612023082601A888A 003795003795                                    
HR4E3082892077103769900   4OI36                   ON5531543352  MJHCPOFF 0000  
HR5E308289207712023082601A888A 003795003795                                    
HR4E3082892078103769900   4OI37                   ON9840711874  XAHCPOFF 0000  
HR5E308289207812023082601A888A 003795003795                                    
HR4E3082892079103769900   4OI38                   ON4256769565  WBHCPOFF 0000  
HR5E308289207912023082601A888A 003795003795                                    
HR4E3082892080103769900   4OI39                   ON4194921369  GTHCPOFF 0000  
HR5E308289208012023082601A888A 003795003795                                    
HR4E3202800259103769900   4OI73                   ON5599433660  JKHCPOFF 0000  
HR5E320280025912023082601A888A 003795003795                                    
HR4E3202800260103769900   4OI74                   ON8110437939  NPHCPOFF 0000  
HR5E320280026012023082601A888A 003795003795                                    
HR5E320280026012023082601Z117A 001165001165                                    
HR4E3202800261103769900   4OI75                   ON2275254601  ELHCPOFF 0000  
HR5E320280026112023082601A888A 003795003795                                    
HR4E3202800262103769900   4OI76                   ON7347283165  TTHCPOFF 0000  
HR5E320280026212023082601A888A 003795003795                                    
HR4E3202800263103769900   4OI77                   ON9431037622  EHHCPOFF 0000  
HR5E320280026312023082601A888A 003795003795                                    
HR5E320280026312023082601G372A 000389000389                                    
HR4E3202800264103769900   4OI78                   ON5608512439  DEHCPOFF 0000  
HR5E320280026412023082601K028A 007010007010                                    
HR4E3202800265103769900   4OI79                   ON4111072650  AJHCPOFF 0000  
HR5E320280026512023082601A888A 003795003795                                    
HR4E318128033620376990003289005                   ON7372926720  TDHCP    0000  
HR5E318128033622023060801A007A 003795003225 57                                 
HR5E318128033622023060801A007A 003795000000 55                                 
HR5E318128033622023060801K301A 000000000000 30                                 
HR5E318128033622023060801K301A 000000000000 55                                 
HR4E318142984120376990003290644                   ON7372926720  TDHCP    0000  
HR5E318142984122023061201A007A 003795003225 57                                 
HR5E318142984122023061201A007A 003795000000 55                                 
HR5E318142984122023061201K301A 000000000000 30                                 
HR5E318142984122023061201K301A 000000000000 55                                 
HR4E308104313310376990003304051                   ON6431313052  KBHCP    0000  
HR5E308104313312023071001A102A 001500001500                                    
HR5E308104313312023071001K301A 000000000000 30                                 
HR4E308170263810376990003305750                   ON5523091931  PXHCP    0000  
HR5E308170263812023071301A007A 003795003795                                    
HR4E308104313410376990003307789                   ON8150474289  ATHCP    0000  
HR5E308104313412023071701A007A 003795003795                                    
HR5E308104313412023071701Q012A 001139000000 I6                                 
HR4E320017159510376990003312653                   ON9403453039  GEHCP    0000  
HR5E320017159512023072701A102A 001500001500                                    
HR5E320017159512023072701K301A 000000000000 30                                 
HR4E320017159710376990003312701                   ON4152428589  RTHCP    0000  
HR5E320017159712023072701A102A 001500001500                                    
HR5E320017159712023072701K301A 000000000000 30                                 
HR4E320017159810376990003312711                   ON7204056175  MXHCP    0000  
HR5E320017159812023072701A102A 001500001500                                    
HR5E320017159812023072701K301A 000000000000 30                                 
HR4E320017159910376990003312731                   ON7010886559  WNHCP    0000  
HR5E320017159912023072701A102A 001500001500                                    
HR5E320017159912023072701K301A 000000000000 30                                 
HR4E320017159610376990003312734                   ON2241440359  HAHCP    0000  
HR5E320017159612023072701K013A 007010007010                                    
HR4E320017160010376990003312796                   ON3582226530  XKHCP    0000  
HR5E320017160012023072701K030A 004055004055                                    
HR4E320017160110376990003312798                   ON7234792278  EYHCP    0000  
HR5E320017160112023072701K013A 007010007010                                    
HR4E320017160210376990003312874                   ON9961459550  FWHCP    0000  
HR5E320017160212023072701A007A 003795000000 I2                                 
HR5E320017160212023072701Q150A 000700000700                                    
HR4E320017160310376990003312876                   ON5660967703  YPHCP    0000  
HR5E320017160312023072701A007A 003795003225 B2                                 
HR5E320017160312023072701K301A 000000000000 30                                 
HR4E320017160810376990003312966                   ON3023052727  XEHCP    0000  
HR5E320017160812023072701A007A 003795000000 I2                                 
HR5E320017160812023072701K301A 000000000000 30                                 
HR4E320017161110376990003312975                   ON9493827399  KAHCP    0000  
HR5E320017161112023072701A007A 003795000000 I2                                 
HR4E320017161010376990003312984                   ON6426406911  HLHCP    0000  
HR5E320017161012023072701A102A 001500001500                                    
HR5E320017161012023072701K301A 000000000000 30                                 
HR4E320017160410376990003312990                   ON5118654184  TXHCP    0000  
HR5E320017160412023072701K013A 007010007010                                    
HR4E320017160510376990003312994                   ON8238318060  KMHCP    0000  
HR5E320017160512023072701K030A 004055004055                                    
HR4E320017160610376990003313005                   ON4134989799  REHCP    0000  
HR5E320017160612023072701G372A 000389000000 I2                                 
HR5E320017160612023072701K030A 004055000000 M1                                 
HR4E320017160710376990003313025                   ON4952720771  FLHCP    0000  
HR5E320017160712023072701K013A 007010007010                                    
HR4E320017160910376990003313035                   ON6863674930  EPHCP    0000  
HR5E320017160912023072701A007A 003795000000 I2                                 
HR4E320017158910376990003313037                   ON8640517739  JBHCP    0000  
HR5E320017158912023072501A007A 003795000000 I2                                 
HR4E320017159010376990003313041                   ON4849270725  EEHCP    0000  
HR5E320017159012023072501K005A 007010000000 I2                                 
HR4E320017161310376990003313054                   ON5900236570  KJHCP    0000  
HR5E320017161312023072701K030A 004055004055                                    
HR4E320017161410376990003313061                   ON4462192479  RRHCP    0000  
HR5E320017161412023072701A007A 003795003225 B2                                 
HR5E320017161412023072701K301A 000000000000 30                                 
HR4E320017159110376990003313064                   ON9714988244  CRHCP    0000  
HR5E320017159112023072501A007A 003795000000 I2                                 
HR4E320017159310376990003313068                   ON2697115455  WCHCP    0000  
HR5E320017159312023072501A007A 003795000000 I2                                 
HR4E320017159210376990003313070                   ON6222996297  NRHCP    0000  
HR5E320017159212023072501A007A 003795003795                                    
HR5E320017159212023072501G538A 000580000580                                    
HR5E320017159212023072501G841A 000635000635                                    
HR5E320017159212023072501G846A 000540000540                                    
HR5E320017159212023072501Q015A 001399000000 I6                                 
HR4E320017159410376990003313074                   ON9480021121  HAHCP    0000  
HR5E320017159412023072501K030A 004055004055                                    
HR4E320017161510376990003313081                   ON2059755211  AMHCP    0000  
HR5E320017161512023072701A007A 003795000000 I2                                 
HR4E320017161610376990003313093                   ON7505606793  JVHCP    0000  
HR5E320017161612023072701A007A 003795000000 I2                                 
HR4E356021573510376990003313714                   ON9198254295  LLHCP    0000  
HR5E356021573512023073101A007A 003795000000 I2                                 
HR5E356021573512023073101K301A 000000000000 30                                 
HR4E356021573610376990003313720                   ON4453396097  NBHCP    0000  
HR5E356021573612023073101A102A 001500001500                                    
HR5E356021573612023073101K301A 000000000000 30                                 
HR4E356021573810376990003313726                   ON2564273593  ETHCP    0000  
HR5E356021573812023073101A007A 003795003225 B2                                 
HR5E356021573812023073101K301A 000000000000 30                                 
HR4E308104313510376990003313750                   ON6431313052  KBHCP    0000  
HR5E308104313512023073101A007A 003795000000 35                                 
HR5E308104313512023073101K301A 000000000000 30                                 
HR4E356021573710376990003313750                   ON6431313052  KBHCP    0000  
HR5E356021573712023073101A007A 003795003225 B2                                 
HR5E356021573712023073101K301A 000000000000 30                                 
HR4E356021573910376990003313780                   ON1500270747  YVHCP    0000  
HR5E356021573912023073101K030A 004055004055                                    
HR4E356021574010376990003313797                   ON6543707290  JDHCP    0000  
HR5E356021574012023073101A007A 003795003225 B2                                 
HR5E356021574012023073101K301A 000000000000 30                                 
HR4E356021574110376990003313804                   ON4535024188  DLHCP    0000  
HR5E356021574112023073101A007A 003795003225 B2                                 
HR5E356021574112023073101K301A 000000000000 30                                 
HR4E356021574210376990003313832                   ON4574826311  HJHCP    0000  
HR5E356021574212023073101A007A 003795000000 I2                                 
HR5E356021574212023073101K301A 000000000000 30                                 
HR4E356021574310376990003313847                   ON6701576248  RKHCP    0000  
HR5E356021574312023073101A102A 001500001500                                    
HR5E356021574312023073101K301A 000000000000 30                                 
HR4E356021573310376990003313932                   ON4389081375  PBHCP    0000  
HR5E356021573312023073101Q011A 000000000000 30                                 
HR4E356021574410376990003313963                   ON2321534352  CHHCP    0000  
HR5E356021574412023073101A102A 001500001500                                    
HR5E356021574412023073101K301A 000000000000 30                                 
HR4E356021574510376990003313976                   ON1946450127  EHHCP    0000  
HR5E356021574512023073101A007A 003795003225 B2                                 
HR5E356021574512023073101K301A 000000000000 30                                 
HR4E356021574710376990003313991                   ON8438074281  RRHCP    0000  
HR5E356021574712023073101A007A 003795003225 B2                                 
HR5E356021574712023073101K301A 000000000000 30                                 
HR4E356021574610376990003314000                   ON3936538986  RMHCP    0000  
HR5E356021574612023073101A007A 003795003225 B2                                 
HR5E356021574612023073101K301A 000000000000 30                                 
HR4E356021574620376990003314000                   ON3936538986  RMHCP    0000  
HR5E356021574622023073101A007A 003795000000 I2                                 
HR5E356021574622023073101A007A 003795003225-55                                 
HR5E356021574622023073101K301A 000000000000 30                                 
HR5E356021574622023073101K301A 000000000000 55                                 
HR4E356021574810376990003314050                   ON5034723576  TWHCP    0000  
HR5E356021574812023073101K013A 007010007010                                    
HR4E356021574910376990003314108                   ON4289007215  BVHCP    0000  
HR5E356021574912023073101A007A 003795000000 I2                                 
HR5E356021574912023073101K301A 000000000000 30                                 
HR4E356021575010376990003314158                   ON4659109450  NRHCP    0000  
HR5E356021575012023073101A007A 003795000000 I2                                 
HR4E356021575110376990003314193                   ON3864759844  WRHCP    0000  
HR5E356021575112023073101A102A 001500001500                                    
HR5E356021575112023073101K301A 000000000000 30                                 
HR4E356021575210376990003314210                   ON9888411106  NNHCP    0000  
HR5E356021575212023073101A007A 003795003225 B2                                 
HR5E356021575212023073101K301A 000000000000 30                                 
HR4E356021575310376990003314235                   ON1482294491  GNHCP    0000  
HR5E356021575312023073101A007A 003795000000 I2                                 
HR5E356021575312023073101K301A 000000000000 30                                 
HR4E356021575410376990003314248                   ON4430527889  REHCP    0000  
HR5E356021575412023073101A102A 001500001500                                    
HR5E356021575412023073101K301A 000000000000 30                                 
HR4E356021575510376990003314281                   ON2962211310  EKHCP    0000  
HR5E356021575512023073101A003A 008735000000 I2                                 
HR5E356021575512023073101E080A 002525002525                                    
HR4E356021575610376990003314286                   ON4745825754  NFHCP    0000  
HR5E356021575612023073101A007A 003795000000 I2                                 
HR5E356021575612023073101K301A 000000000000 30                                 
HR4E356021575710376990003314299                   ON3995738964  KKHCP    0000  
HR5E356021575712023073101A007A 003795000000 I2                                 
HR5E356021575712023073101K301A 000000000000 30                                 
HR4E356021575810376990003314306                   ON3025239645  EBHCP    0000  
HR5E356021575812023073101A007A 003795000000 I2                                 
HR5E356021575812023073101K301A 000000000000 30                                 
HR4E356021573410376990003314318                   ON8905034198  APHCP    0000  
HR5E356021573412023073101A007A 003795000000 I2                                 
HR5E356021573412023073101K301A 000000000000 30                                 
HR4E356021575910376990003314500                   ON4168233890  EDHCP    0000  
HR5E356021575912023080101A102A 001500001500                                    
HR5E356021575912023080101K301A 000000000000 30                                 
HR4E356021576010376990003314519                   ON1319396915  FVHCP    0000  
HR5E356021576012023080101A007A 003795000000 I2                                 
HR5E356021576012023080101K301A 000000000000 30                                 
HR4E356021576110376990003314549                   ON2672677305  XBHCP    0000  
HR5E356021576112023080101A007A 003795000000 I2                                 
HR5E356021576112023080101K301A 000000000000 30                                 
HR4E356021576210376990003314582                   ON1958844258  YEHCP    0000  
HR5E356021576212023080101A102A 001500001500                                    
HR5E356021576212023080101K301A 000000000000 30                                 
HR4E356021576310376990003314593                   ON7823365312  FKHCP    0000  
HR5E356021576312023080101A007A 003795003225 B2                                 
HR5E356021576312023080101K301A 000000000000 30                                 
HR4E356021576410376990003314618                   ON7492034413  FDHCP    0000  
HR5E356021576412023080101A007A 003795003225 B2                                 
HR5E356021576412023080101K301A 000000000000 30                                 
HR4E356021576420376990003314618                   ON7492034413  FDHCP    0000  
HR5E356021576422023080101A007A 003795000000 I2                                 
HR5E356021576422023080101A007A 003795003225-55                                 
HR5E356021576422023080101K301A 000000000000 30                                 
HR5E356021576422023080101K301A 000000000000 55                                 
HR4E356021576510376990003314631                   ON2911421184  HNHCP    0000  
HR5E356021576512023080101A102A 001500001500                                    
HR5E356021576512023080101K301A 000000000000 30                                 
HR4E356021576810376990003314661                   ON5343384045  RDHCP    0000  
HR5E356021576812023080101A007A 003795000000 I2                                 
HR5E356021576812023080101K301A 000000000000 30                                 
HR4E356021577010376990003314683                   ON5564510369  CGHCP    0000  
HR5E356021577012023080101A007A 003795000000 I2                                 
HR5E356021577012023080101K301A 000000000000 30                                 
HR4E356021576910376990003314684                   ON5343384045  RDHCP    0000  
HR5E356021576912023080101A007A 003795000000 35                                 
HR5E356021576912023080101K301A 000000000000 30                                 
HR4E356021577110376990003314798                   ON9983350712  VLHCP    0000  
HR5E356021577112023080101A007A 003795000000 I2                                 
HR5E356021577112023080101K301A 000000000000 30                                 
HR4E320046516710376990003314839                   ON6141406022  NKHCP    0000  
HR5E320046516712023080101A007A 003795003225 B2                                 
HR5E320046516712023080101K301A 000000000000 30                                 
HR4E320046516810376990003314953                   ON2837045075  XTHCP    0000  
HR5E320046516812023080101A102A 001500001500                                    
HR5E320046516812023080101K301A 000000000000 30                                 
HR4E320046517210376990003315798                   ON8822816255  JMHCP    0000  
HR5E320046517212023080301A007A 003795000000 I2                                 
HR5E320046517212023080301K301A 000000000000 30                                 
HR4E320046517110376990003315805                   ON2911421184  HNHCP    0000  
HR5E320046517112023080301P004A 003815003815                                    
HR4E320046517310376990003315809                   ON7799760967  GJHCP    0000  
HR5E320046517312023080301P004A 003815003815                                    
HR4E320046517410376990003315814                   ON7586784147  GFHCP    0000  
HR5E320046517412023080301A102A 001500001500                                    
HR5E320046517412023080301K301A 000000000000 30                                 
HR4E320046517510376990003315834                   ON2755948904  LJHCP    0000  
HR5E320046517512023080301K030A 004055004055                                    
HR4E320046517810376990003315845                   ON1158135317  EFHCP    0000  
HR5E320046517812023080301A102A 001500001500                                    
HR5E320046517812023080301K301A 000000000000 30                                 
HR4E320046517610376990003315849                   ON8463266794  RTHCP    0000  
HR5E320046517612023080301A102A 001500001500                                    
HR5E320046517612023080301K301A 000000000000 30                                 
HR4E320046517710376990003315908                   ON7051102015  TDHCP    0000  
HR5E320046517712023080301A007A 003795000000 I2                                 
HR4E320046517910376990003315917                   ON3125346092  WAHCP    0000  
HR5E320046517912023080301K013A 007010007010                                    
HR4E320046518010376990003315987                   ON1572057097  EAHCP    0000  
HR5E320046518012023080301A007A 003795000000 I2                                 
HR4E320046518310376990003316059                   ON8905034198  APHCP    0000  
HR5E320046518312023080301A007A 003795000000 I2                                 
HR5E320046518312023080301K301A 000000000000 30                                 
HR4E320046518210376990003316089                   ON1319396915  FVHCP    0000  
HR5E320046518212023080301A007A 003795000000 I2                                 
HR4E320046518410376990003316098                   ON6492725350  XXHCP    0000  
HR5E320046518412023080301A102A 001500001500                                    
HR5E320046518412023080301K301A 000000000000 30                                 
HR4E320046518510376990003316117                   ON6359523948  TLHCP    0000  
HR5E320046518512023080301A102A 001500001500                                    
HR5E320046518512023080301K301A 000000000000 30                                 
HR4E320046518610376990003316214                   ON8018118482  XWHCP    0000  
HR5E320046518612023080301A007A 003795000000 I2                                 
HR5E320046518612023080301K055A 002110002110                                    
HR4E320046518710376990003316217                   ON1988954309  TJHCP    0000  
HR5E320046518712023080301A007A 003795003795                                    
HR5E320046518712023080301K055A 002110002110                                    
HR4E320046518810376990003316221                   ON4941033187  XXHCP    0000  
HR5E320046518812023080301A007A 003795000000 I2                                 
HR5E320046518812023080301K301A 000000000000 30                                 
HR4E320046519010376990003316236                   ON1534743255  TEHCP    0000  
HR5E320046519012023080301A007A 003795000000 I2                                 
HR5E320046519012023080301K301A 000000000000 30                                 
HR4E320046518910376990003316263                   ON3618732147  YBHCP    0000  
HR5E320046518912023080301A007A 003795000000 I2                                 
HR4E320046519110376990003316285                   ON8911707852  ERHCP    0000  
HR5E320046519112023080301K030A 004055004055                                    
HR4E320046519210376990003316338                   ON6426406911  HLHCP    0000  
HR5E320046519212023080302K013A 014020014020                                    
HR4E308104313810376990003317023                   ON4699559763  RFHCP    0000  
HR5E308104313812023080601Q011A 000000000000 30                                 
HR4E308104314010376990003317123                   ON9548373373  MEHCP    0000  
HR5E308104314012023080801K030A 004055004055                                    
HR4E308104314110376990003317127                   ON4326965227  ALHCP    0000  
HR5E308104314112023080801A007A 003795000000 I2                                 
HR4E308104314410376990003317186                   ON7083949896  LMHCP    0000  
HR5E308104314412023080801A007A 003795000000 I2                                 
HR5E308104314412023080801K301A 000000000000 30                                 
HR4E308104314210376990003317227                   ON5118654184  TXHCP    0000  
HR5E308104314212023080801A007A 003795003795                                    
HR4E308104314310376990003317236                   ON1029830054  KMHCP    0000  
HR5E308104314312023080801G847A 000540000000 I2                                 
HR5E308104314312023080801K132A 008095000000 I2                                 
HR4E308104314510376990003317241                   ON9403453039  GEHCP    0000  
HR5E308104314512023080801K013A 007010007010                                    
HR4E308104314610376990003317247                   ON7204056175  MXHCP    0000  
HR5E308104314612023080801K013A 007010007010                                    
HR4E308104314710376990003317259                   ON1016901108  WBHCP    0000  
HR5E308104314712023080801K028A 007010007010                                    
HR4E308104314810376990003317270                   ON3020376137  KWHCP    0000  
HR5E308104314812023080801A007A 003795003225 B2                                 
HR5E308104314812023080801K301A 000000000000 30                                 
HR4E308104314910376990003317295                   ON6869797693  LAHCP    0000  
HR5E308104314912023080801A007A 003795003795                                    
HR5E308104314912023080801G372A 000389000389                                    
HR4E308104315010376990003317324                   ON3917293528  MBHCP    0000  
HR5E308104315012023080801K013A 007010000000 I2                                 
HR4E308104315110376990003317337                   ON8956098795  LFHCP    0000  
HR5E308104315112023080801A007A 003795000000 I2                                 
HR5E308104315112023080801K301A 000000000000 30                                 
HR4E308104313910376990003317347                   ON7321784790  DDHCP    0000  
HR5E308104313912023080801A007A 003795000000 I2                                 
HR5E308104313912023080801K301A 000000000000 30                                 
HR4E308104315310376990003317392                   ON1367751458  AJHCP    0000  
HR5E308104315312023080801A102A 001500001500                                    
HR5E308104315312023080801K301A 000000000000 30                                 
HR4E308104315410376990003317418                   ON6928069944  XMHCP    0000  
HR5E308104315412023080801A007A 003795000000 I2                                 
HR4E308104315710376990003317427                   ON4389081375  PBHCP    0000  
HR5E308104315712023080801A007A 003795000000 I2                                 
HR5E308104315712023080801K301A 000000000000 30                                 
HR5E308104315712023080801Q011A 000000000000 30                                 
HR4E308104315810376990003317495                   ON4952720771  FLHCP    0000  
HR5E308104315812023080801A007A 003795003225 B2                                 
HR5E308104315812023080801K301A 000000000000 30                                 
HR4E308104315210376990003317505                   ON8437998613  THHCP    0000  
HR5E308104315212023080801A007A 003795000000 I2                                 
HR4E308104315510376990003317507                   ON8668790606  CJHCP    0000  
HR5E308104315512023080801K131A 005695005695                                    
HR4E308104315610376990003317511                   ON4984712374  VEHCP    0000  
HR5E308104315612023080801K013A 007010007010                                    
HR4E308104316010376990003317521                   ON8238348174  VXHCP    0000  
HR5E308104316012023080801A007A 003795000000 I2                                 
HR4E308104315910376990003317541                   ON2407591284  KTHCP    0000  
HR5E308104315912023080801K013A 007010007010                                    
HR4E308104316110376990003317544                   ON6029991608  LWHCP    0000  
HR5E308104316112023080801A007A 003795003795                                    
HR4E308104316210376990003317596                   ON1229972342  JNHCP    0000  
HR5E308104316212023080801K005A 007010000000 I2                                 
HR4E308154011110376990003318405                   ON7010886559  WNHCP    0000  
HR5E308154011112023081001K013A 007010007010                                    
HR4E308154006910376990003318426                   ON7372926720  TDHCP    0000  
HR5E308154006912023060101Q402A 000000000000 30                                 
HR4E308154010910376990003318434                   ON1322667674  CLHCP    0000  
HR5E308154010912023081001A007A 003795000000 I2                                 
HR4E308154011010376990003318436                   ON3741247120  YCHCP    0000  
HR5E308154011012023081001A007A 003795000000 I2                                 
HR4E308154011210376990003318459                   ON7009957635  THHCP    0000  
HR5E308154011212023081001K030A 004055004055                                    
HR4E308154011510376990003318469                   ON6747652730  FHHCP    0000  
HR5E308154011512023081001A007A 003795000000 I2                                 
HR5E308154011512023081001K301A 000000000000 30                                 
HR4E308154011310376990003318488                   ON6141897204  HAHCP    0000  
HR5E308154011312023081001A007A 003795000000 I2                                 
HR4E308154011910376990003318494                   ON8044900143  RWHCP    0000  
HR5E308154011912023081001A007A 003795000000 I2                                 
HR5E308154011912023081001K301A 000000000000 30                                 
HR4E308154011610376990003318520                   ON8719411657  DHHCP    0000  
HR5E308154011612023081001A007A 003795000000 I2                                 
HR4E308154011710376990003318527                   ON5066845917  MNHCP    0000  
HR5E308154011712023081001K030A 004055004055                                    
HR4E308154011810376990003318540                   ON5233942977  WVHCP    0000  
HR5E308154011812023081001K030A 004055004055                                    
HR4E308154011410376990003318552                   ON6869797693  LAHCP    0000  
HR5E308154011412023081001A007A 003795003795                                    
HR4E308154012010376990003318605                   ON4453396097  NBHCP    0000  
HR5E308154012012023081001K030A 004055004055                                    
HR4E308154012110376990003318620                   ON3864759844  WRHCP    0000  
HR5E308154012112023081001K013A 007010007010                                    
HR4E308154012210376990003318623                   ON4097714176  WCHCP    0000  
HR5E308154012212023081001A007A 003795000000 I2                                 
HR5E308154012212023081001K301A 000000000000 30                                 
HR4E308154012310376990003318653                   ON4939090694  TDHCP    0000  
HR5E308154012312023081001K005A 007010006660 B2                                 
HR5E308154012312023081001K301A 000000000000 30                                 
HR4E308154013210376990003318661                   ON7823365312  FKHCP    0000  
HR5E308154013212023081001A007A 003795003225 B2                                 
HR5E308154013212023081001K301A 000000000000 30                                 
HR4E308154012410376990003318714                   ON8071898947  KHHCP    0000  
HR5E308154012412023081001K030A 004055004055                                    
HR4E308154012510376990003318717                   ON5664349940  GFHCP    0000  
HR5E308154012512023081001K013A 007010007010                                    
HR4E308154013310376990003318722                   ON7372926720  TDHCP    0000  
HR5E308154013312023081001A007A 003795000000 I2                                 
HR5E308154013312023081001K301A 000000000000 30                                 
HR4E308154013320376990003318722                   ON7372926720  TDHCP    0000  
HR5E308154013322023081001A007A 003795003225 57                                 
HR5E308154013322023081001A007A 003795000000 55                                 
HR5E308154013322023081001K301A 000000000000 30                                 
HR5E308154013322023081001K301A 000000000000 55                                 
HR4E308154007010376990003318726                   ON7356415898  PFHCP    0000  
HR5E308154007012023060101Q402A 000000000000 30                                 
HR4E308154007110376990003318728                   ON2705496640  PFHCP    0000  
HR5E308154007112023060101Q402A 000000000000 30                                 
HR4E308154007310376990003318733                   ON1598544144  DEHCP    0000  
HR5E308154007312023070101Q402A 000000000000 30                                 
HR4E308170263910376990003318741                   ON3179539824  RTHCP    0000  
HR5E308170263912023081001A007A 003795003795                                    
HR4E308154012610376990003318766                   ON9714988244  CRHCP    0000  
HR5E308154012612023081001A007A 003795000000 I2                                 
HR4E308154012710376990003318769                   ON8985585689  LRHCP    0000  
HR5E308154012712023081001A007A 003795000000 I2                                 
HR4E308154012910376990003318788                   ON5014193378  NYHCP    0000  
HR5E308154012912023081001A007A 003795000000 I2                                 
HR4E308154013010376990003318799                   ON9759278436  JYHCP    0000  
HR5E308154013012023081001A007A 003795003795                                    
HR4E308154013020376990003318799                   ON9759278436  JYHCP    0000  
HR5E308154013022023081001A007A 003795000000 I2                                 
HR5E308154013022023081001A007A 003795003795-55                                 
HR4E308154013110376990003318822                   ON8341801358  XFHCP    0000  
HR5E308154013112023081001K030A 004055004055                                    
HR4E308154013910376990003319597                   ON3936538986  RMHCP    0000  
HR5E308154013912023081201Q011A 000000000000 30                                 
HR4E308154013410376990003319822                   ON5664349940  GFHCP    0000  
HR5E308154013412023081101Q200A 000000000000 30                                 
HR4E308154013510376990003319823                   ON8071898947  KHHCP    0000  
HR5E308154013512023081101Q200A 000000000000 30                                 
HR4E308154013610376990003319825                   ON3864759844  WRHCP    0000  
HR5E308154013612023081101Q200A 000000000000 30                                 
HR4E308154013710376990003319826                   ON4453396097  NBHCP    0000  
HR5E308154013712023081101Q200A 000000000000 30                                 
HR4E308154013810376990003319827                   ON7010886559  WNHCP    0000  
HR5E308154013812023081101Q200A 000000000000 30                                 
HR4E308154010210376990003319828                   ON4984712374  VEHCP    0000  
HR5E308154010212023080901Q200A 000000000000 30                                 
HR4E308154010310376990003319829                   ON2407591284  KTHCP    0000  
HR5E308154010312023080901Q200A 000000000000 30                                 
HR4E308154010410376990003319830                   ON8668790606  CJHCP    0000  
HR5E308154010412023080901Q200A 000000000000 30                                 
HR4E308154010510376990003319831                   ON1016901108  WBHCP    0000  
HR5E308154010512023080901Q200A 000000000000 30                                 
HR4E308154010610376990003319832                   ON7204056175  MXHCP    0000  
HR5E308154010612023080901Q200A 000000000000 30                                 
HR4E308154010710376990003319833                   ON9403453039  GEHCP    0000  
HR5E308154010712023080901Q200A 000000000000 30                                 
HR4E308154008210376990003319835                   ON8238318060  KMHCP    0000  
HR5E308154008212023072801Q200A 000000000000 30                                 
HR4E308154010810376990003319836                   ON5118654184  TXHCP    0000  
HR5E308154010812023080901Q200A 000000000000 30                                 
HR4E308154008310376990003319837                   ON3582226530  XKHCP    0000  
HR5E308154008312023072801Q200A 000000000000 30                                 
HR4E308154008410376990003319839                   ON7234792278  EYHCP    0000  
HR5E308154008412023072801Q200A 000000000000 30                                 
HR4E308154008510376990003319841                   ON2241440359  HAHCP    0000  
HR5E308154008512023072801Q200A 000000000000 30                                 
HR4E308154008610376990003319842                   ON4462192479  RRHCP    0000  
HR5E308154008612023072801Q200A 000000000000 30                                 
HR4E308154008710376990003319843                   ON8114758215  RFHCP    0000  
HR5E308154008712023072801Q200A 000000000000 30                                 
HR4E308154008810376990003319844                   ON7492034413  FDHCP    0000  
HR5E308154008812023072801Q200A 000000000000 30                                 
HR4E308154009110376990003319845                   ON4535024188  DLHCP    0000  
HR5E308154009112023080101Q200A 000000000000 30                                 
HR4E308154007610376990003319847                   ON7761343693  WMHCP    0000  
HR5E308154007612023072101Q200A 000000000000 30                                 
HR4E308154010010376990003319848                   ON8911707852  ERHCP    0000  
HR5E308154010012023080401Q200A 000000000000 30                                 
HR4E308154009210376990003319849                   ON6431313052  KBHCP    0000  
HR5E308154009212023080101Q200A 000000000000 30                                 
HR4E308154009310376990003319853                   ON2564273593  ETHCP    0000  
HR5E308154009312023080101Q200A 000000000000 30                                 
HR4E308154008910376990003319854                   ON5660967703  YPHCP    0000  
HR5E308154008912023072801Q200A 000000000000 30                                 
HR4E308154007410376990003319856                   ON9719209059  GDHCP    0000  
HR5E308154007412023071901Q200A 000000000000 30                                 
HR4E308154008110376990003319857                   ON6477327552  LVHCP    0000  
HR5E308154008112023072601Q200A 000000000000 30                                 
HR4E308154014110376990003319870                   ON4738378399  KCHCP    0000  
HR5E308154014112023081401A007A 003795003795                                    
HR4E308154014310376990003319900                   ON7846802101  FDHCP    0000  
HR5E308154014312023081401A007A 003795000000 I2                                 
HR5E308154014312023081401K301A 000000000000 30                                 
HR4E308154014610376990003320000                   ON2170716910  YNHCP    0000  
HR5E308154014612023081401A102A 001500001500                                    
HR5E308154014612023081401K301A 000000000000 30                                 
HR4E308154014710376990003320009                   ON6263617794  BWHCP    0000  
HR5E308154014712023081401A102A 001500001500                                    
HR5E308154014712023081401K301A 000000000000 30                                 
HR4E308154014810376990003320011                   ON9916183537  DKHCP    0000  
HR5E308154014812023081401A102A 001500001500                                    
HR5E308154014812023081401K301A 000000000000 30                                 
HR4E308154014910376990003320018                   ON5002843836  MWHCP    0000  
HR5E308154014912023081401A007A 003795000000 I2                                 
HR4E308154007510376990003320029                   ON3741247120  YCHCP    0000  
HR5E308154007512023071901Q200A 000000000000 30                                 
HR4E308154009410376990003320032                   ON1500270747  YVHCP    0000  
HR5E308154009412023080101Q200A 000000000000 30                                 
HR4E308154015010376990003320048                   ON7372926720  TDHCP    0000  
HR5E308154015012023081401A007A 003795000000 I2                                 
HR5E308154015012023081401K301A 000000000000 30                                 
HR4E308154015020376990003320048                   ON7372926720  TDHCP    0000  
HR5E308154015022023081401A007A 003795003225 57                                 
HR5E308154015022023081401A007A 003795000000 55                                 
HR5E308154015022023081401K301A 000000000000 30                                 
HR5E308154015022023081401K301A 000000000000 55                                 
HR4E308154007710376990003320051                   ON3936538986  RMHCP    0000  
HR5E308154007712023072101Q200A 000000000000 30                                 
HR4E308154009510376990003320054                   ON1946450127  EHHCP    0000  
HR5E308154009512023080101Q200A 000000000000 30                                 
HR4E308154009610376990003320055                   ON9888411106  NNHCP    0000  
HR5E308154009612023080101Q200A 000000000000 30                                 
HR4E308154007810376990003320056                   ON1994367090  PEHCP    0000  
HR5E308154007812023072501Q200A 000000000000 30                                 
HR4E308154007910376990003320058                   ON8341801358  XFHCP    0000  
HR5E308154007912023072501Q200A 000000000000 30                                 
HR4E308154009710376990003320060                   ON6141406022  NKHCP    0000  
HR5E308154009712023080201Q200A 000000000000 30                                 
HR4E308154014010376990003320065                   ON4952720771  FLHCP    0000  
HR5E308154014012023081401Q200A 000000000000 30                                 
HR4E308154010110376990003320069                   ON3020376137  KWHCP    0000  
HR5E308154010112023080901Q200A 000000000000 30                                 
HR4E308154008010376990003320071                   ON9759278436  JYHCP    0000  
HR5E308154008012023072601Q200A 000000000000 30                                 
HR4E308154009010376990003320074                   ON5034723576  TWHCP    0000  
HR5E308154009012023080101Q200A 000000000000 30                                 
HR4E308154009810376990003320077                   ON3125346092  WAHCP    0000  
HR5E308154009812023080401Q200A 000000000000 30                                 
HR4E308154009910376990003320079                   ON6426406911  HLHCP    0000  
HR5E308154009912023080401Q200A 000000000000 30                                 
HR4E308154007210376990003320082                   ON6417248512  VRHCP    0000  
HR5E308154007212023070101Q402A 000000000000 30                                 
HR4E308154014510376990003320104                   ON7156551751  TNHCP    0000  
HR5E308154014512023081401A007A 003795000000 I2                                 
HR4E308154014410376990003320120                   ON4430527889  REHCP    0000  
HR5E308154014412023081402K013A 014020014020                                    
HR4E308154014210376990003320121                   ON6915480930  FMHCP    0000  
HR5E308154014212023081401K037A 007010007010                                    
HR4E308154015110376990003320125                   ON9282958371  DNHCP    0000  
HR5E308154015112023081401A102A 001500001500                                    
HR5E308154015112023081401K301A 000000000000 30                                 
HR4E308154015210376990003320143                   ON5687111475  DTHCP    0000  
HR5E308154015212023081401A102A 001500001500                                    
HR5E308154015212023081401K301A 000000000000 30                                 
HR4E308170264010376990003320163                   ON5172342049  BDHCP    0000  
HR5E308170264012023081401A007A 003795000000 I2                                 
HR5E308170264012023081401K301A 000000000000 30                                 
HR4E308154015910376990003320286                   ON9749516515  REHCP    0000  
HR5E308154015912023081401A102A 001500001500                                    
HR5E308154015912023081401K301A 000000000000 30                                 
HR4E308154016110376990003320303                   ON4326965227  ALHCP    0000  
HR5E308154016112023081401A007A 003795000000 I2                                 
HR5E308154016112023081401K301A 000000000000 30                                 
HR4E308154016210376990003320317                   ON5924378283  WVHCP    0000  
HR5E308154016212023081401A102A 001500001500                                    
HR5E308154016212023081401K301A 000000000000 30                                 
HR4E308154016310376990003320367                   ON3787721426  TWHCP    0000  
HR5E308154016312023081401A003A 008735000000 I2                                 
HR5E308154016312023081401Q150A 000700000700                                    
HR4E308154016010376990003320370                   ON3901208243  XMHCP    0000  
HR5E308154016012023081401A007A 003795000000 I2                                 
HR4E308154015810376990003320375                   ON8238318060  KMHCP    0000  
HR5E308154015812023081401K030A 004055004055                                    
HR4E308154015410376990003320382                   ON1958844258  YEHCP    0000  
HR5E308154015412023081401K013A 007010007010                                    
HR4E308154015510376990003320383                   ON1158135317  EFHCP    0000  
HR5E308154015512023081401K030A 004055004055                                    
HR4E308154015610376990003320385                   ON8463266794  RTHCP    0000  
HR5E308154015612023081401K013A 007010007010                                    
HR4E308154015710376990003320393                   ON6492725350  XXHCP    0000  
HR5E308154015712023081401K013A 007010007010                                    
HR4E308170264110376990003320536                   ON4430527889  REHCP    0000  
HR5E308170264112023081501Q200A 000000000000 30                                 
HR4E308170264210376990003320537                   ON6492725350  XXHCP    0000  
HR5E308170264212023081501Q200A 000000000000 30                                 
HR4E308170264310376990003320538                   ON8463266794  RTHCP    0000  
HR5E308170264312023081501Q200A 000000000000 30                                 
HR4E308170264410376990003320540                   ON1158135317  EFHCP    0000  
HR5E308170264412023081501Q200A 000000000000 30                                 
HR4E308170264510376990003320541                   ON1958844258  YEHCP    0000  
HR5E308170264512023081501Q200A 000000000000 30                                 
HR4E308170264710376990003320551                   ON1260335995  GLHCP    0000  
HR5E308170264712023081501K037A 007010007010                                    
HR4E308170264810376990003320569                   ON8958486311  GRHCP    0000  
HR5E308170264812023081501A102A 001500001500                                    
HR5E308170264812023081501K301A 000000000000 30                                 
HR4E308170264910376990003320573                   ON7725713395  CLHCP    0000  
HR5E308170264912023081501A102A 001500001500                                    
HR5E308170264912023081501K301A 000000000000 30                                 
HR4E308170265010376990003320575                   ON9900168916  GKHCP    0000  
HR5E308170265012023081501A102A 001500001500                                    
HR5E308170265012023081501K301A 000000000000 30                                 
HR4E308170265110376990003320587                   ON5864460851  HAHCP    0000  
HR5E308170265112023081501A102A 001500001500                                    
HR5E308170265112023081501K301A 000000000000 30                                 
HR4E308170265210376990003320612                   ON1749407217  RRHCP    0000  
HR5E308170265212023081501A007A 003795000000 I2                                 
HR4E308170265310376990003320624                   ON9016188279  VTHCP    0000  
HR5E308170265312023081501K030A 004055004055                                    
HR4E308170265410376990003320649                   ON4152428589  RTHCP    0000  
HR5E308170265412023081501K030A 004055004055                                    
HR4E308170265510376990003320667                   ON5343384045  RDHCP    0000  
HR5E308170265512023081501A007A 003795000000 I2                                 
HR4E308170263510376990003320672                   ON9471012832  PKHCP    0000  
HR5E308170263512023060101Q402A 000000000000 30                                 
HR4E308170265710376990003320695                   ON4037602739  NBHCP    0000  
HR5E308170265712023081501A102A 001500001500                                    
HR5E308170265712023081501K301A 000000000000 30                                 
HR4E308170265810376990003320759                   ON4849270725  EEHCP    0000  
HR5E308170265812023081501A007A 003795000000 I2                                 
HR4E308170265910376990003320788                   ON5842589227  VBHCP    0000  
HR5E308170265912023081501A102A 001500001500                                    
HR5E308170265912023081501K301A 000000000000 30                                 
HR4E308170266010376990003320800                   ON2962211310  EKHCP    0000  
HR5E308170266012023081501A007A 003795000000 I2                                 
HR4E308170266110376990003320874                   ON6359523948  TLHCP    0000  
HR5E308170266112023081501K013A 007010007010                                    
HR4E308170266210376990003320916                   ON2557599939  YAHCP    0000  
HR5E308170266212023081501A007A 003795000000 I2                                 
HR5E308170266212023081501G372A 000389000000 I2                                 
HR4E308170266310376990003320919                   ON8905034198  APHCP    0000  
HR5E308170266312023081501E080A 002525002525                                    
HR5E308170266312023081501G372A 000389000000 I2                                 
HR5E308170266312023081501K030A 004055004055                                    
HR4E308170266510376990003320933                   ON6426406911  HLHCP    0000  
HR5E308170266512023081501A007A 003795000000 I2                                 
HR5E308170266512023081501K301A 000000000000 30                                 
HR4E308170266610376990003320942                   ON1572057097  EAHCP    0000  
HR5E308170266612023081501A007A 003795000000 I2                                 
HR5E308170266612023081501K301A 000000000000 30                                 
HR4E308170266710376990003320980                   ON5496983288  KWHCP    0000  
HR5E308170266712023081501A102A 001500001500                                    
HR5E308170266712023081501K301A 000000000000 30                                 
HR4E308170266410376990003320981                   ON5034723576  TWHCP    0000  
HR5E308170266412023081501A007A 003795000000 I2                                 
HR5E308170266412023081501K301A 000000000000 30                                 
HR4E308170264610376990003320988                   ON7372926720  TDHCP    0000  
HR5E308170264612023081501A007A 003795003225 B2                                 
HR5E308170264612023081501K301A 000000000000 30                                 
HR4E308170266810376990003321023                   ON5401972954  VYHCP    0000  
HR5E308170266812023081501A007A 003795000000 I2                                 
HR5E308170266812023081501K301A 000000000000 30                                 
HR4E308170266910376990003321043                   ON7799760967  GJHCP    0000  
HR5E308170266912023081501P003A 008035008035                                    
HR4E308170267010376990003321063                   ON7586784147  GFHCP    0000  
HR5E308170267012023081501K013A 007010007010                                    
HR4E308183823610376990003321842                   ON4134989799  REHCP    0000  
HR5E308183823612023081701A007A 003795000000 I2                                 
HR5E308183823612023081701K301A 000000000000 30                                 
HR4E308183823510376990003321866                   ON2163480375  TGHCP    0000  
HR5E308183823512023081701A002A 006220006220                                    
HR5E308183823512023081701G841A 000635000635                                    
HR4E308183823710376990003321892                   ON3757232776  ENHCP    0000  
HR5E308183823712023081701A007A 003795000000 I2                                 
HR4E308183823810376990003321909                   ON6966147669  BNHCP    0000  
HR5E308183823812023081701A007A 003795003795                                    
HR4E308183823910376990003321937                   ON3810057517  JJHCP    0000  
HR5E308183823912023081701A007A 003795000000 I2                                 
HR5E308183823912023081701K301A 000000000000 30                                 
HR4E308183824010376990003321977                   ON9961459550  FWHCP    0000  
HR5E308183824012023081701A007A 003795000000 I2                                 
HR5E308183824012023081701K301A 000000000000 30                                 
HR4E308183824110376990003321987                   ON7492034413  FDHCP    0000  
HR5E308183824112023081701A007A 003795000000 I2                                 
HR4E308183824210376990003322001                   ON7204056175  MXHCP    0000  
HR5E308183824212023081701A007A 003795000000 I2                                 
HR4E308183824310376990003322011                   ON9315534264  WCHCP    0000  
HR5E308183824312023081701A007A 003795000000 I2                                 
HR4E308183824410376990003322021                   ON3245187665  EDHCP    0000  
HR5E308183824412023081701A007A 003795000000 I2                                 
HR4E308183824510376990003322081                   ON7634805951  BKHCP    0000  
HR5E308183824512023081701A102A 001500001500                                    
HR5E308183824512023081701K301A 000000000000 30                                 
HR4E308183824910376990003322259                   ON5014193378  NYHCP    0000  
HR5E308183824912023081701A007A 003795000000 I2                                 
HR5E308183824912023081701K301A 000000000000 30                                 
HR4E308183825010376990003322273                   ON6797940753  DHHCP    0000  
HR5E308183825012023081701A102A 001500001500                                    
HR5E308183825012023081701K301A 000000000000 30                                 
HR4E308183825110376990003322289                   ON3193349671  GEHCP    0000  
HR5E308183825112023081701A007A 003795000000 I2                                 
HR4E308183825210376990003322298                   ON1594138693  HCHCP    0000  
HR5E308183825212023081701A007A 003795000000 I2                                 
HR5E308183825212023081701K301A 000000000000 30                                 
HR4E308183825310376990003322307                   ON8668790606  CJHCP    0000  
HR5E308183825312023081701A007A 003795000000 I2                                 
HR4E308183825410376990003322317                   ON8635476602  EFHCP    0000  
HR5E308183825412023081701A007A 003795000000 I2                                 
HR5E308183825412023081701K301A 000000000000 30                                 
HR4E308183825510376990003322323                   ON6016446483  GHHCP    0000  
HR5E308183825512023081701A007A 003795000000 I2                                 
HR5E308183825512023081701K301A 000000000000 30                                 
HR4E308183825610376990003322338                   ON5664349940  GFHCP    0000  
HR5E308183825612023081701A007A 003795000000 I2                                 
HR5E308183825612023081701K301A 000000000000 30                                 
HR4E308183825710376990003322384                   ON9751532426  VXHCP    0000  
HR5E308183825712023081701K028A 007010007010                                    
HR4E332250339310376990003322386                   ON2655311971  FKHCP    0000  
HR5E332250339312023081701A007A 003795000000 I2                                 
HR5E332250339312023081701K301A 000000000000 30                                 
HR4E308183825910376990003322390                   ON9767838411  CCHCP    0000  
HR5E308183825912023081701A007A 003795000000 I2                                 
HR4E308183824610376990003322392                   ON1367751458  AJHCP    0000  
HR5E308183824612023081702K013A 014020014020                                    
HR4E308183824710376990003322402                   ON6029991608  LWHCP    0000  
HR5E308183824712023081701A003A 008735008735                                    
HR4E308183824810376990003322403                   ON5974380080  PJHCP    0000  
HR5E308183824812023081701K013A 007010007010                                    
HR4E320298742810376990003326439                   ON5864460851  HAHCP    0000  
HR5E320298742812023082801K013A 007010007010                                    
HR4E320298742910376990003326457                   ON2241440359  HAHCP    0000  
HR5E320298742912023082801A007A 003795000000 I2                                 
HR4E320298743010376990003326476                   ON1994367090  PEHCP    0000  
HR5E320298743012023082801A007A 003795000000 I2                                 
HR4E320298743110376990003326481                   ON1806450241  NRHCP    0000  
HR5E320298743112023082801A007A 003795000000 I2                                 
HR5E320298743112023082801K301A 000000000000 30                                 
HR4E320298743210376990003326491                   ON7372926720  TDHCP    0000  
HR5E320298743212023082801A007A 003795003225 B2                                 
HR5E320298743212023082801K301A 000000000000 30                                 
HR4E320298743410376990003326518                   ON3475173823  GRHCP    0000  
HR5E320298743412023082801A102A 001500001500                                    
HR5E320298743412023082801K301A 000000000000 30                                 
HR4E320298743510376990003326526                   ON4506427162  DXHCP    0000  
HR5E320298743512023082801A007A 003795000000 I2                                 
HR4E320298743610376990003326537                   ON6564943741  RVHCP    0000  
HR5E320298743612023082801A007A 003795000000 I2                                 
HR5E320298743612023082801K301A 000000000000 30                                 
HR4E320298743710376990003326547                   ON7133371810  LXHCP    0000  
HR5E320298743712023082801A102A 001500001500                                    
HR5E320298743712023082801K301A 000000000000 30                                 
HR4E320298743910376990003326552                   ON1534743255  TEHCP    0000  
HR5E320298743912023082801A007A 003795000000 I2                                 
HR5E320298743912023082801K301A 000000000000 30                                 
HR4E320298743810376990003326565                   ON4097714176  WCHCP    0000  
HR5E320298743812023082801A007A 003795000000 I2                                 
HR4E320298744010376990003326580                   ON9344574000  LTHCP    0000  
HR5E320298744012023082801A007A 003795000000 I2                                 
HR5E320298744012023082801G372A 000389000000 I2                                 
HR4E320298742710376990003326587                   ON6747652730  FHHCP    0000  
HR5E320298742712023082801Q131A 000000000000 30                                 
HR4E320298744110376990003326604                   ON9739308410  CPHCP    0000  
HR5E320298744112023082801A007A 003795000000 I2                                 
HR5E320298744112023082801Q150A 000700000000 M4                                 
HR4E320298744210376990003326614                   ON4453396097  NBHCP    0000  
HR5E320298744212023082801A007A 003795000000 I2                                 
HR5E320298744212023082801Q012A 001139001139                                    
HR4E320298744310376990003326623                   ON7855176637  GGHCP    0000  
HR5E320298744312023082801A007A 003795000000 I2                                 
HR5E320298744312023082801Q012A 001139001139                                    
HR4E320298744410376990003326625                   ON5532295473  LHHCP    0000  
HR5E320298744412023082801A007A 003795000000 I2                                 
HR5E320298744412023082801Q012A 001139001139                                    
HR4E320298744510376990003326638                   ON1350278097  PLHCP    0000  
HR5E320298744512023082801A007A 003795000000 I2                                 
HR5E320298744512023082801Q012A 001139001139                                    
HR4E320298744610376990003326649                   ON7083601166  EBHCP    0000  
HR5E320298744612023082801A007A 003795000000 I2                                 
HR5E320298744612023082801Q012A 001139001139                                    
HR4E320298744710376990003326650                   ON5712089324  CBHCP    0000  
HR5E320298744712023082801A007A 003795000000 I2                                 
HR5E320298744712023082801Q012A 001139001139                                    
HR4E320298744810376990003326655                   ON1572057097  EAHCP    0000  
HR5E320298744812023082801A007A 003795000000 I2                                 
HR5E320298744812023082801Q012A 001139001139                                    
HR4E320298744910376990003326659                   ON6030082694  VHHCP    0000  
HR5E320298744912023082801A007A 003795000000 I2                                 
HR5E320298744912023082801K301A 000000000000 30                                 
HR5E320298744912023082801Q012A 001139000968                                    
HR4E320298745010376990003326665                   ON8875456868  HRHCP    0000  
HR5E320298745012023082801A007A 003795000000 I2                                 
HR5E320298745012023082801K301A 000000000000 30                                 
HR5E320298745012023082801Q012A 001139000968                                    
HR4E320298745110376990003326672                   ON5565924965  FCHCP    0000  
HR5E320298745112023082801A007A 003795003795                                    
HR5E320298745112023082801Q012A 001139000000 I6                                 
HR4E320298745210376990003326673                   ON1319396915  FVHCP    0000  
HR5E320298745212023082801A007A 003795000000 I2                                 
HR5E320298745212023082801Q012A 001139001139                                    
HR4E320298745410376990003326676                   ON9714988244  CRHCP    0000  
HR5E320298745412023082801A007A 003795000000 I2                                 
HR5E320298745412023082801Q012A 001139001139                                    
HR4E320298745310376990003326678                   ON6176457700  BVHCP    0000  
HR5E320298745312023082801A007A 003795000000 I2                                 
HR5E320298745312023082801Q012A 001139001139                                    
HR4E320298745510376990003326683                   ON9199703167  GAHCP    0000  
HR5E320298745512023082801A007A 003795003795                                    
HR5E320298745512023082801Q012A 001139000000 I6                                 
HR4E320298745610376990003326684                   ON6271163773  XYHCP    0000  
HR5E320298745612023082801A007A 003795000000 I2                                 
HR5E320298745612023082801Q012A 001139001139                                    
HR4E320298745710376990003326686                   ON1260335995  GLHCP    0000  
HR5E320298745712023082801A007A 003795000000 I2                                 
HR5E320298745712023082801Q012A 001139001139                                    
HR4E320298745810376990003326690                   ON4694678451  KDHCP    0000  
HR5E320298745812023082801A007A 003795000000 I2                                 
HR5E320298745812023082801K301A 000000000000 30                                 
HR5E320298745812023082801Q012A 001139000968                                    
HR4E320298745910376990003326692                   ON3020376137  KWHCP    0000  
HR5E320298745912023082801A007A 003795000000 I2                                 
HR5E320298745912023082801K301A 000000000000 30                                 
HR5E320298745912023082801Q012A 001139000968                                    
HR4E320298746010376990003326774                   ON5012104476  HTHCP    0000  
HR5E320298746012023082901A007A 003795000000 I2                                 
HR4E320298746110376990003326799                   ON4134989799  REHCP    0000  
HR5E320298746112023082901K030A 004055000000 M1                                 
HR4E320298746210376990003326806                   ON6345216631  NWHCP    0000  
HR5E320298746212023082901A102A 001500001500                                    
HR5E320298746212023082901K301A 000000000000 30                                 
HR4E320298746310376990003326818                   ON9505271230  BKHCP    0000  
HR5E320298746312023082901A102A 001500001500                                    
HR5E320298746312023082901K301A 000000000000 30                                 
HR4E320298746410376990003326822                   ON2693984516  EDHCP    0000  
HR5E320298746412023082901A102A 001500001500                                    
HR5E320298746412023082901K301A 000000000000 30                                 
HR4E320298746510376990003326824                   ON2364055422  LNHCP    0000  
HR5E320298746512023082901A102A 001500001500                                    
HR5E320298746512023082901K301A 000000000000 30                                 
HR720 2023083100004262-COMP CARE RECONCILIATION                                
HR720 2023083100019449-BASE RATE PAYMENT RECONCILIATION ADJMT                  
HR740 2023083100007106 AGE PREMIUM PAYMENT                                     
HR740 2023083100005406 BLENDED FEE-FOR-SERVICE PREMIUM                         
HR740 2023083100084458 BLENDED FEE-FOR-SERVICE PREMIUM                         
HR740 2023083100221342 COMP CARE CAPITATION                                    
HR740 2023083101068118 NETWORK BASE RATE PAYMENT                               
HR740 2023083100003795 RECIPROCAL PAYMENT - DETAILS INCLUDED                   
HR8**********************************************************************      
HR8                      PREMIUM PAYMENTS                                      
HR8FOR PAYMENT:          2023-08-31                                            
HR8GROUP BILLING NUMBER: 0BANT                                                 
HR8                                                                            
HR8CURRENT FISCAL                                                              
HR8PAYMENT          PAYMENT    NUMBER OF    TOTAL DOLLAR VALUE     TOTAL       
HR8TYPE                RATE       CLAIMS    OF APPROVED CLAIMS   PAYMENT       
HR8BLENDED PREMIUM    15.00% MTD       0                           $0.00       
HR8                          YTD       1           $12.92          $1.94       
HR8BLENDED PREMIUM    19.41% MTD      48          $279.57         $54.06       
HR8                          YTD     218        $1,349.38        $261.04       
HR8TOTAL MONTHLY PREMIUM PAYMENT                                  $54.06       
HR8**********************************************************************      
HR8                      PREMIUM PAYMENTS                                      
HR8FOR PAYMENT:          2023-08-31                                            
HR8GROUP BILLING NUMBER: 00000                                                 
HR8                                                                            
HR8CURRENT FISCAL                                                              
HR8PAYMENT          PAYMENT    NUMBER OF    TOTAL DOLLAR VALUE     TOTAL       
HR8TYPE                RATE       CLAIMS    OF APPROVED CLAIMS   PAYMENT       
HR8GERIATRIC GA       15.00% MTD       1           $87.35         $13.10       
HR8                          YTD       2          $168.30         $25.24       
HR8GERIATRIC IA       15.00% MTD      12          $461.10         $57.96       
HR8                          YTD      25        $1,017.00        $125.91       
HR8TOTAL MONTHLY PREMIUM PAYMENT                                  $71.06       
HR8**********************************************************************      
HR8FISCAL YEAR APRIL 1, 2022 - MARCH 31, 2023                                  
HR8                                                                            
HR8      SPECIALTY         LEVEL 1       LEVEL 2       LEVEL 3                 
HR8     DESIGNATION          N/A           N/A           N/A                   
HR8   --------------   ------------  ------------  ------------                
