HX1V03E          00000000002385680046820230818                                 
HXH2524656333EK1942111603309828HCPP                                            
HXTA007A  0037950120230720388                                   EH2            
HXTG420A  0013150120230720388                                   EH2            
HXH8465633579VF1996122303309951HCPP                                            
HXTA007A  0037950120230720374                                   EH2            
HXH1167218658CL1969022303310206HCPP                                            
HXTK030A  0040550120230721250                                   EH2            
HXH4603628738JK1981022303311149HCPP                                            
HXTA007A  0037950120230724788                                   EH2            
HXTK301A  0000000120230724788                                   EH2            
HXTQ012A  0011390120230724788                                   EH2            
HXH8689379017PT1934071303314368HCPP                                            
HXTA001A  0023750120230731519                                   EH2            
HXH4603628738JK1981022303314865HCPP                                            
HXTA007A  0037950120230801307                                   EH2            
HXTK301A  0000000120230801307                                   EH2            
HXH3405207337ML1953032103318657HCPP                                            
HXTA007A  0037950120230810739                                   EH2            
HXH3526684919BK1955080103319249HCPP                                            
HXTA007A  0037950120230811250                                   AT3            
HXTK301A  0000000120230811250                                                  
HXH1167218658CL1969022303320004HCPP                                            
HXTA007A  0037950120230814553                                   EH2            
HXH1914690993JM1957123003320749HCPP      479920230809    HOP    V68            
HXTR440B  0330752720230809715                                                  
HXH2524023864PH1956022103321753HCPP                                            
HXTA001A  0023750120230816787                                   EH2            
HXTK301A  0000000120230816787                                   EH2            
HX90000011000000000000170000000                                                
